:100000000C9462000C948A000C948A000C948A0070
:100010000C948A000C948A000C948A000C948A0038
:100020000C948A000C948A000C948A000C948A0028
:100030000C948A000C948A000C948A000C948A0018
:100040000C9402030C948A000C948A000C948A008D
:100050000C948A000C948A000C948A000C948A00F8
:100060000C948A000C948A000000000024002700F1
:100070002A0000000000250028002B0000000000DE
:1000800023002600290004040404040404040202DA
:100090000202020203030303030301020408102007
:1000A0004080010204081020010204081020000012
:1000B0000008000201000003040700000000000027
:1000C0000000080411241FBECFEFD8E0DEBFCDBF73
:1000D00011E0A0E0B1E0ECE5F8E002C005900D927F
:1000E000A237B107D9F721E0A2E7B1E001C01D9224
:1000F000A339B207E1F710E0C2E6D0E004C02197CF
:10010000FE010E942604C136D107C9F70E944C03A4
:100110000C942C040C940000AF92BF92CF92DF920B
:10012000EF92FF920F931F93CF93DF936C017B01AC
:100130008B01040F151FEB015E01AE18BF08C0173D
:10014000D10759F06991D601ED91FC910190F081B0
:10015000E02DC6010995892B79F7C501DF91CF9173
:100160001F910F91FF90EF90DF90CF90BF90AF90D5
:100170000895833081F028F4813099F08230A9F01D
:1001800008958730A9F08830C9F08430B1F48091A7
:1001900080008F7D03C0809180008F7780938000E6
:1001A000089584B58F7784BD089584B58F7DFBCF86
:1001B0008091B0008F778093B00008958091B00057
:1001C0008F7DF9CF1F93CF93DF93282F30E0F90174
:1001D000E255FF4F8491F901E656FF4FD491F901A2
:1001E000EA57FF4FC491CC23A9F0162F81110E942A
:1001F000B900EC2FF0E0EE0FFF1FEE58FF4FA59176
:10020000B4918FB7F894EC91111108C0D095DE230A
:10021000DC938FBFDF91CF911F910895DE2BF8CF34
:10022000CF93DF9390E0FC01E656FF4F24918A576D
:100230009F4FFC0184918823D1F090E0880F991F93
:10024000FC01E859FF4FA591B491FC01EE58FF4F16
:10025000C591D49161110EC09FB7F8948C91E22F93
:10026000E0958E238C932881E223E8839FBFDF9162
:10027000CF9108958FB7F894EC91E22BEC938FBF58
:10028000F6CF3FB7F8948091770190917801A091D3
:100290007901B0917A0126B5A89B05C02F3F19F0CE
:1002A0000196A11DB11D3FBFBA2FA92F982F8827F6
:1002B000BC01CD01620F711D811D911D42E0660FD1
:1002C000771F881F991F4A95D1F708958F929F92A3
:1002D000AF92BF92CF92DF92EF92FF924B015C01FF
:1002E0000E9441016B017C010E9441016C197D0952
:1002F0008E099F09683E734081059105A8F321E0AE
:10030000821A9108A108B10888EEC80E83E0D81EB1
:10031000E11CF11C81149104A104B10429F7FF90A0
:10032000EF90DF90CF90BF90AF909F908F90089507
:10033000089590E080E00895FC0101900020E9F725
:100340003197AF01481B590BBC018BE791E00C942E
:100350008C00CF93DF93EC0160E08E810E94E2007D
:1003600061E08E810E94E20060E08E810E94E200E6
:100370008BE891E00197F1F7DF91CF910895CF924B
:10038000DF92EF92FF920F931F93CF93DF936C0155
:100390007C0187E0E80EF11CD0E0C0E0062F10E001
:1003A000B8010C2E02C0759567950A94E2F761704A
:1003B000F70181917F010E94E2002196C430D105AE
:1003C00079F7C601DF91CF911F910F91FF90EF90C8
:1003D000DF90CF900C94A901CF92DF92EF92FF9221
:1003E0000F931F93CF93DF93EC01F62E642F8C8134
:1003F0000E94E2008D818F3F19F060E00E94E200D0
:100400000F2D10E08F8584FF25C06E0187E0C80E98
:10041000D11CF12CE12CB8010E2C02C0759567950A
:100420000A94E2F76170F60181916F010E94E20087
:10043000FFEFEF1AFF0A88E0E816F10461F7CE013A
:10044000DF91CF911F910F91FF90EF90DF90CF90B0
:100450000C94A901B80184E0759567958A95E1F738
:10046000CE010E94BF016F2DCE01DF91CF911F9170
:100470000F91FF90EF90DF90CF900C94BF0140E080
:10048000682F8BE791E00C94EC0181E00E943F0221
:100490008BE39FE10197F1F70895CF93DF938230CB
:1004A00029F490918A01986090938A0180938E013B
:1004B00010928F0180E48093900180E180939101FC
:1004C00080E58093920161E080917F010E9410019C
:1004D000809180018F3F19F061E00E94100161E07E
:1004E000809181010E941001CBE7D1E09E012B5742
:1004F000314080918A0184FD0BC084E090E0219618
:100500002817390744F461E08E810E941001EECF74
:1005100088E090E0F4CF8BE39DE00197F1F760E095
:1005200080917F010E94E20060E0809181010E9441
:10053000E200809180018F3F19F060E00E94E200AC
:1005400080918A0184FD34C063E08BE791E00E94D2
:10055000BF01CBE4D6E4CE010197F1F763E08BE76E
:1005600091E00E94BF012197F1F763E08BE791E0F2
:100570000E94BF0183E592E00197F1F762E08BE70B
:1005800091E00E94BF0180918A0180620E943F0237
:1005900084E080938B018CE00E943F020E94450220
:1005A00082E080938C0186E0DF91CF910C943F0232
:1005B00080620E943F028BE496E40197F1F78091FC
:1005C0008A0180620E943F0283E592E00197F1F781
:1005D00080918A0180620E943F02D5CFE0918E0116
:1005E000E23040F4E150F0E0E558FE4F8489806845
:1005F0000C943F02E1E0F7CF41E00E94EC0181E082
:1006000090E008951F920F920FB60F9211242F932E
:100610003F938F939F93AF93BF938091730190917A
:100620007401A0917501B09176013091720123E0BF
:10063000230F2D3758F50196A11DB11D209372018E
:100640008093730190937401A0937501B093760128
:100650008091770190917801A0917901B0917A0110
:100660000196A11DB11D8093770190937801A0930D
:100670007901B0937A01BF91AF919F918F913F9192
:100680002F910F900FBE0F901F90189526E8230F03
:100690000296A11DB11DD2CF789484B5826084BD2D
:1006A00084B5816084BD85B5826085BD85B5816076
:1006B00085BD80916E00816080936E0010928100F4
:1006C00080918100826080938100809181008160AF
:1006D0008093810080918000816080938000809170
:1006E000B10084608093B1008091B00081608093FC
:1006F000B00080917A00846080937A0080917A00C3
:10070000826080937A0080917A00816080937A0081
:1007100080917A00806880937A001092C10060E036
:1007200087E00E94100161E08DE00E94100182E0EC
:100730000E944D028CE091E00E949C010E94EE021A
:100740008DE191E00E949C0160ED77E080E090E017
:100750000E946601C5EBD0E001EA10E09DE8E92EB9
:1007600090E0F92E20E0C22E20E0D22EFE018491EE
:10077000F801A490F701B490BB20A9F181110E9467
:10078000B900EB2DF0E0EE0FFF1FE458FF4FA591ED
:10079000B4918C91A82239F160E08DE00E94E200D2
:1007A0000E9445028EE291E00E949C010E94EE02AE
:1007B0008FE391E00E949C0160E971E080E090E0AD
:1007C0000E94660160E08DE00E94E20064EF71E04B
:1007D00080E090E00E946601C114D10409F4C6CF04
:1007E0000E940000C3CF61E08DE00E94E2000E9401
:1007F000450280E591E00E949C010E94EE0282E6A3
:1008000091E00E949C0168EE73E080E090E0E2CF0E
:10081000EBE7F1E01382128284E091E09183808320
:100820008CE084838FEF85838BE0868385E08783EC
:1008300084E0808783E0818782E082871386148644
:1008400015861686178681E00C944D02EE0FFF1F69
:0C0850000590F491E02D0994F894FFCF7E
:10085C0000000000FC028C00990198014C504720CC
:10086C00476173204465746563746F7200546563EB
:10087C00686E6F20526576696577203835002020C8
:10088C00204E4F204C504720474153202020002021
:10089C002020204C45414B41474520202020200062
:1008AC00204C504720476173204C65616B61676534
:1008BC0020002020202020416C65727420202020F4
:0208CC0000002A
:00000001FF
